:1000000014C02DC02CC02BC02AC029C028C027C0B6
:1000100026C025C024C0B2C122C021C020C01FC03C
:100020001EC01DC01CC06200E30111241FBECFE52D
:10003000D4E0DEBFCDBF20E0A0E6B0E001C01D925D
:10004000AA3AB207E1F710E0C5E1D0E003C021977A
:10005000FE01BDD1C331D107D1F702D0E3C1D0CF6A
:1000600081E690E042D18823F9F0F89481E690E0AF
:10007000B3D081E690E030D1D82F81E690E023D153
:10008000C82F81E690E016D12D2F30E04C2F50E0A4
:10009000682F70E080E690E02DD08FE097E2019726
:1000A000F1F700C000007894F8945D9BFECF78943F
:1000B0009FEF24E38CE0915020408040E1F700C0A6
:1000C0000000CECF81E690E084D080E690E001D0C1
:1000D000089587B317BA8FB5816A8FBD8EB58A60D0
:1000E0008EBD85B58A6685BD1BBC1ABC19BC18BC03
:1000F00013BC0895CF93DF93F22F6115710571F44E
:100100004115510559F4232B49F487B317BAA0E0E0
:10011000E0E080E07727B1E0552708C087B38E6024
:1001200087BBF5CFEE2311F0A11150C02AB53BB526
:1001300062177307A9F0811114C02AB53BB52617C1
:10014000370738F42AB53BB52F5F3F4F3BBD2ABD7B
:1001500008C02AB53BB5215031093BBD2ABD01C0BD
:100160008B2F28B539B542175307A9F0E11114C0F8
:1001700028B539B52417350738F428B539B52F5FB8
:100180003F4F39BD28BD08C028B539B521503109C8
:1001900039BD28BD01C0EB2F93B5F91769F0A11146
:1001A0000CC093B59F1720F493B59F5F93BD05C016
:1001B00093B5915093BD01C0AB2FCFECD7E0219701
:1001C000F1F700C000008111ADCFB0CFDF91CF912A
:1001D0000895FC0110820895CF93DF93FC011082F3
:1001E000209181002F3449F421E020835AC03091BE
:1001F00081003E3271F020E018C0FC0133969C0172
:10020000295F3F4F1192138217822E173F07D1F7B4
:10021000EECF20E030E0F901EE57FF4F60816E3203
:1002200089F040E050E070E01BC0FC01E20FF11DDE
:1002300033832F5FE22FF0E0EF57FF4F30813E32E4
:10024000A1F7E8CF40E050E0FA01E20FF31FED57CD
:10025000FF4FE081E93229F160E070E0A0E010C0DA
:10026000FC01E40FF51F67837F5F472F50E0FA0121
:10027000E20FF31FEE57FF4F60816E3289F7E4CF34
:10028000EC01C60FD71FEB87AF5F6A2F70E0FA0152
:10029000E60FF71FE20FF31FED57FF4FE081E93242
:1002A00079F7E0E7F0E081E0808315821682DF9144
:1002B000CF910895FC012081211103C003968DD0B8
:1002C000089580E00895FC012081211103C0079664
:1002D00084D0089580E00895FC012081211103C09D
:1002E0000B967BD0089580E0089580917600089564
:1002F000DC0115968C91159781110FC08C91882384
:1003000061F0FD0171969D012F5C3F4F1192E21744
:10031000F307E1F71C9212961C920895CF93DF9396
:10032000EC0178948AB188698AB980B5866880BD05
:1003300010BC83E389B981E088831D821E82198203
:10034000CE01D6DF1A82DF91CF910895CF93DF934C
:10035000EC01F894CDDF5F9BFECF8CB189838A815D
:100360009981FE01E80FF11D918B8F5F8A831982BD
:1003700081E08E838D83DF91CF9108951F920F923C
:100380000FB60F9211242F933F934F935F936F9368
:100390007F938F939F93AF93BF93EF93FF9380E7E8
:1003A00090E0D4DFFF91EF91BF91AF919F918F913A
:1003B0007F916F915F914F913F912F910F900FBE61
:1003C0000F901F90189580E790E0A8DF0895EE0F3A
:1003D000FF1F0590F491E02D0994FC0188279927CF
:1003E000E89421912032E9F3293010F02E30C8F33F
:1003F0002B3239F02D3231F4689403C00BD0820FC8
:10040000911D219120532A30C8F31EF490958195B7
:100410009F4F08957AE0979F902D879F802D910D93
:0804200011240895F894FFCFA8
:00000001FF
